:0E0000000C942F000C9400000C9400000C9443
:10000E0000000C9400000C9400000C9400000C9462
:10001E0000000C9400000C9400000C9400000C9452
:10002E0000000C9400000C9400000C9400000C9442
:10003E0000000C9400000C9400000C9400000C9432
:10004E0000000C94000000000200040054000000A8
:10005E00F894EE27ECBBF1E0FBBFEBBFE5BFF8E198
:10006E00F1BDE1BD8DE0A2E0BB27ED938A95E9F7E6
:10007E0080E094E0A0E6ED930197E9F7E6E5F0E085
:10008E0085919591009761F0A591B5910590159088
:10009E00BF01F00105900D920197E1F7FB01F0CF42
:1000AE00EFE5EDBFE4E0EEBFC0E6D1E00C945F00FB
:1000BE002DD00E94BA00E4E00E94E00049F4EEEF79
:1000CE00F0E04E165F0624F4F20131960E94E40031
:1000DE00E3E00E94E00041F400240414050424F43B
:1000EE00F20131970E94E400E2E00E94E00011F478
:1000FE00E1E07E2EE1E00E94E00011F4E2E07E2ECF
:10010E007A925A924A921CD0D6CFFFCF9298939859
:10011E0094989598969897988A9A8B9A8C9A8D9A85
:10012E008E9A8F9AE1EAEFBDEDE0EEBDE0E0EDBD17
:10013E00ECBDE7BDE6BDEBBDEABDE9BDE8BD08958A
:10014E00AA81A13011F4939807C0AA81A23019F4A4
:10015E00939A929802C0939A929AE881F981F9BD86
:10016E00E8BD23960895C09AB898C19AB998C29AD4
:10017E00BA98C39ABB980895A881A13021F4E0E003
:10018E00B09BE1E014C0A881A23021F4E0E0B19B65
:10019E00E1E00DC0A881A33021F4E0E0B29BE1E0E4
:1001AE0006C0A881A43019F4E0E0B39BE1E02196EB
:1001BE000895EA93E1DFE13008952F01E4E6F0E0DF
:1001CE00FA93EA930C94EB00E991F991309639F099
:1001DE008DEC9AE00197F1F7A8953197C9F708953C
:00000001FF
