:0A0000000C944F000C9400000C94C7
:10000A0000000C9400000C9400000C9400000C9466
:10001A0000000C9400000C9400000C9400000C9456
:10002A0000000C9400000C9400000C9400000C9446
:10003A0000000C9400000C9400000C9400000C9436
:10004A0000000C9481000C94D8000C9400000C94CD
:10005A0000000C94AD000C940C010C9400000C945C
:10006A0000000C9400001027E80364000A00010055
:10007A0000100001100001000000496E692061773C
:10008A00616C2070726F6772616D0000010002007E
:10009A0082000000F894EE27ECBBF1E0FBBFEBBF57
:1000AA00E5BFE6BFF8E1F1BDE1BD8DE0A2E0BB2707
:1000BA00ED938A95E9F780E094E0A0E0B1E0ED9352
:1000CA000197E9F7E6E9F0E085919591009761F0EB
:1000DA00A591B59105901590BF01F00105900D927B
:1000EA000197E1F7FB01F0CFEFEFEDBFE4E0EEBFE0
:1000FA00C0E0D2E00C9452010E9465031A930A935D
:10010A001BB10CB1E12FEC7189F4E52D5394F0E0A9
:10011A00E050FE4F0083E0E2E51509F4552473949C
:10012A00E0E2E71519F47724689420F856C01A9388
:10013A007720F1F3E42D4394F0E0E050FE4F108174
:10014A00E0E2E41509F44424F8947A9478945CC0C3
:10015A000E946503882061F08A94E92D9394F0E067
:10016A00E05EFD4FE081ECB9E0E2E91509F499247B
:10017A0036C0AA93E0E2E815E9F3F894882011F46E
:10018A005D990DC0E62D6394F0E0E05EFD4FA88115
:10019A00A083E0E2E61509F46624839402C0E881AC
:1001AA00ECB9789478C00E9465031A930A9312B145
:1001BA0003B1E12FEC7189F4EB2DB394F0E0E05C2C
:1001CA00FD4F0083E0E2EB1509F4BB24D394E0E28F
:1001DA00ED1519F4DD24689421F809911991E99132
:1001EA00EFBFF991E99118951A93DD20F1F3EA2D01
:1001FA00A394F0E0E05CFD4F1081E0E2EA1509F417
:10020A00AA24F894DA947894E12F19910895AA937C
:10021A00EA93FA93EFB7EA93E0918102E030A9F00A
:10022A00E150E0938102E0918002EF5FE093800267
:10023A00E150F0E0E05AFD4FE081E3B9A09180027D
:10024A00A03219F4E0E0E0938002E991EFBFF9915E
:10025A00E991A9911895AA93A0918102A032E1F39C
:10026A00F894E0918102E03011F4159911C0EC2D57
:10027A00C394F0E0E05AFD4FA881A083E0E2EC15B8
:10028A0009F4CC24E0918102EF5FE093810202C07D
:10029A00E881E3B9789421960895E0E8E093610053
:1002AA00E0E0E0936100EBBBEABBE8BBE7BBE5BB80
:1002BA00EFEFE4BBE0E0E2BBEFEFE1BBE0E0E7B980
:1002CA00E6B9E3BFE2BFE1BFE6BDE7BDE3BDE2BD1C
:1002DA00E0938B00E0938A00E0938900E093880022
:1002EA00E0938100E0938000E0938700E09386002A
:1002FA00E0938500E0938400E5BFE6BFE9BFE093A1
:10030A007D00EBB9E8EDEAB9E6E8E0BDE0E0E0BD82
:10031A00EBE0E9B9E0E0E2B9E8EDE1B9E6E8ECBF23
:10032A00E0E0ECBFEBE0E0B9E0E8E8B9E0E0EDB925
:10033A007894E4E8F0E0FA93EA9380E00E944003BC
:10034A00229612D0DD2019F04FDFAE2F12DF772070
:10035A0019F0EDDEAE2F7FDFE1E0EA93A8EEB3E01D
:10036A0017D0F0CF0000FECF8D9A8E9A8F9A95986B
:10037A0096989798E3EAEFBDECE0EEBDE0E0EDBDBC
:10038A00ECBDE5BDE4BDEBBDEABDE9BDE8BD089540
:10039A00BA93AA93AA81A13011F4969807C0AA81A8
:1003AA00A23019F4969A979802C0969A979AE88179
:1003BA00F981FBBDEABD0C940702BA93AA93A991ED
:1003CA00B991EE27FF276D91662311F03196FBCF85
:1003DA000895BA93AA93AA27BB27E991F9910590A0
:1003EA00002011F01196FBCFFD010895BA93AA934C
:1003FA00AA810E94BE00A881B981ED91FD91319632
:10040A00FE93EE9323960895BA93AA9326970E9491
:10041A009F0310E0AC85BD85E0E0F0E0ED93FC932E
:10042A00EA89FB893196EA8BFB8B3197E4912E2F6F
:10043A00E03011F40C943803E12FE03039F425321E
:10044A0011F411E002C00E946A030CC1E130A9F460
:10045A00253219F40E946A0304C112E040E000E068
:10046A002D3211F401E0FEC02B3211F44BE2FAC036
:10047A00203211F440E2F6C002C0E23039F450E012
:10048A0013E0203311F40068EDC004C0E33011F02A
:10049A000C943703203310F02A3308F007C0AAE07F
:1004AA005A9F502DE22FE0535E0FDCC0E22FE33655
:1004BA0049F40E947103E889F989A481AA930E94E8
:1004CA007703CFC0E33741F40E9471030E947D0392
:1004DA000E94E2011E2F0AC0E03761F40E947103F4
:1004EA000E947D030E94EE011E2F086002600F77B2
:1004FA0030E035C0E43611F0E93611F4046002C088
:10050A00E53731F4E0E7F0E0EE83FF8315E00DC054
:10051A00E83511F4086004C0E83711F00C9436038A
:10052A00EAE7F0E0EE83FF8314E002FF14C00E94C2
:10053A0071030E948703AB85AA233AF4EA85FB85F7
:10054A000E949303EA87FB874DE2403011F01F5F58
:10055A0001C00B7F04C00E9471030E94870300FD43
:10056A0011C0151778F407FF08C002FF04C00B7FFB
:10057A00242F115001C020E301C020E20E946A0327
:10058A005150EFCF312F01FF17C03030A1F003FFD8
:10059A0006C0EE81FF812591EE83FF8305C0AE81FF
:1005AA00BF812D91AE83BF830E946A03503009F048
:1005BA0051503150EACF4BC020E3EE81FF810E94B7
:1005CA009B03E887F987EE81FF813296EE83FF83EA
:1005DA00E885F985AA85BB85AE17BF0750F02F5F5E
:1005EA00A885B985EA85FB85EA1BFB0BEA87FB87A9
:1005FA00EFCF2A3328F003FF02C0295F01C0295D2B
:10060A0004FD1AC0213320F4A885B985119709F48D
:10061A0009C0531710F000FF01C013C020E207FF02
:10062A000BC020E3006102FF07C00B7F4A930E94C0
:10063A007703503009F051500E946A03503009F094
:10064A0051503150A885B985129708F0B5CF00FFEF
:10065A0008C0503031F05150E0E2EA930E9477032B
:10066A00F8CF10E0DDCEAC85BD850E9497030E94CD
:10067A00A60364960895FF92F82E26971A930A9372
:10068A00DE0114960E948F038D01E0E0EC83ED8376
:10069A00EE83EF83DE0118960E948F030E94970370
:1006AA00FA93EA931A930A93EBEFF1E0FA93EA9337
:1006BA00DE011896A9DE198108812896FF9008950F
:1006CA00EA93FA93EFB7EA9308952A93AD85BE8524
:1006DA00EF85F88909950895E889F9893497E88BAF
:1006EA00F98B0895AD85BE85EF85F889099508953A
:1006FA00A889B98914960E949703EE83FF83AE8175
:10070A00BF810895A889B98914960E949703EA8738
:10071A00FB8708950024AF0DB01D0895F195E1956A
:10072A00F0400895ED91FC91119708950590F49188
:10073A00E02D08955A934A933A932A931A930A9367
:10074A0008955D814C813B812A8119810881089530
:00000001FF
