:040000000C944B0011
:100004000C9400000C9400000C9400000C9400006C
:100014000C9400000C9400000C9400000C9400005C
:100024000C9400000C9400000C9400000C9400004C
:100034000C9400000C9400000C9400000C9400003C
:100044000C9400000C9400000C9400000C9400002C
:100054000C9400000C9400000C9400000C9400001C
:100064000C9400000C9400000C9400001027E8038A
:1000740064000A00010000100001100001000100EA
:100084002D4E414E00494E46000001000002820000
:100094000000F894EE27ECBBF1E0FBBFEBBFE5BF3B
:1000A400E6BFF8E1F1BDE1BD8DE0A2E0BB27ED9331
:1000B4008A95E9F780E094E0A0E0B1E0ED93019740
:1000C400E9F7EEE8F0E085919591009761F0A5914C
:1000D400B59105901590BF01F00105900D9201971F
:1000E400E1F7FB01F0CFEFEFEDBFE4E0EEBFC0E0DE
:1000F400D2E00C947D00E0E8E0936100E0E0E0935E
:100104006100EBBBEABBE8BBE7BBE5BBE4BBE2BB1E
:10011400E0E2E1BBE0E0E7B9E4E0E6B9E0E0E3BF58
:10012400E2BFE1BFE6BDE7BDE3BDE2BDE0938B0006
:10013400E0938A00E0938900E0938800E0938100D3
:10014400E0938000E0938700E0938600E0938500CD
:10015400E0938400E5BFE6BFE9BFE0937D00EBB91F
:10016400E8E1EAB9E6E8E0BDE0E0E0BDE7E4E9B9EA
:10017400E0E0E2B9E8E1E1B9E6E8ECBFE0E0ECBFD9
:10018400E7E4E0B9E0E8E8B9E0E0EDB90AD0E1E09D
:10019400EA93E4E6F0E0FA93EA9317D0F8CF00008C
:1001A400FECF9598969897988D9A8E9A8F9AE3EAAF
:1001B400EFBDE9E0EEBDE0E0EDBDECBDE7BDE6BDC1
:1001C400EBBDEABDE9BDE8BD0895AA81A13011F4F3
:1001D400969807C0AA81A23019F4969A979802C0FB
:1001E400969A979AE881F981FBBDEABD2396089512
:00000001FF
