:0A0000000C941B010C9400000C94FA
:10000A0000000C9400000C9400000C9400000C9466
:10001A0000000C9400000C9400000C9400000C9456
:10002A0000000C9400000C9400000C9400000C9446
:10003A0000000C9400000C9400000C9400000C9436
:10004A0000000C944D010C94A6010C9400000C9431
:10005A0000000C947B010C94C7010C9400000C94D2
:10006A0000000C9400001027E80364000A00010055
:10007A000010000110000100000020746573742054
:10008A007265736574200048544300205B69736984
:10009A006E796120706572696E7461682048544394
:1000AA005D200048544400205B6973696E796120C1
:1000BA00706572696E746168204854445D2000421C
:1000CA004F4400205B6973696E79612070657269BB
:1000DA006E74616820424F445D200052504D0020EA
:1000EA005B6973696E796120706572696E746168A3
:1000FA002052504D5D200041435000205B697369D6
:10010A006E796120706572696E746168204143502E
:10011A005D200041525000205B6973696E7961204D
:10012A00706572696E746168204152505D20005298
:10013A00535400205B6973696E7961207065726936
:10014A006E746168205253545D200041445300206C
:10015A005B6973696E796120706572696E74616832
:10016A00204144535D200045564500205B69736970
:10017A006E796120706572696E74616820455645B2
:10018A005D200056455200205B6973696E796120D3
:10019A00706572696E746168205645525D2000432D
:1001AA00414C00205B6973696E79612070657269E0
:1001BA006E7461682043414C5D2000205B434F4DC3
:1001CA004D414E44204552524F525D2000205B491A
:1001DA0044454E544946494552204552524F525D74
:1001EA0020000100020082000400000291000400C5
:1001FA000402AD0004000802C90004000C02E50074
:10020A00040010020101040014021D010400180276
:10021A00390104001C025501040020027101040086
:10022A0024028D0104002802A9010000F894EE2797
:10023A00ECBBF1E0FBBFEBBFE5BFE6BFF8E1F1BD08
:10024A00E1BD8DE0A2E0BB27ED938A95E9F780E056
:10025A0094E0A0E0B1E0ED930197E9F7ECEEF1E06C
:10026A0085919591009761F0A591B59105901590AA
:10027A00BF01F00105900D920197E1F7FB01F0CF64
:10028A00EFEFEDBFE4E0EEBFC0E0D2E00C94EB018B
:10029A000E94AA041A930A931BB10CB1E12FEC71C4
:1002AA0089F4E52D5394F0E0E45DFD4F0083E0E22C
:1002BA00E51509F455247394E0E2E71519F4772457
:1002CA00689420F858C01A937720F1F3E42D4394E8
:1002DA00F0E0E45DFD4F1081E0E2E41509F4442406
:1002EA00F8947A947894E12F199108950E94AA04B7
:1002FA00882061F08A94E92D9394F0E0E45BFD4F45
:10030A00E081ECB9E0E2E91509F4992436C0E0E2AB
:10031A00E815E9F3F894882011F45D990DC0E62DEB
:10032A006394F0E0E45BFD4FA881A083E0E2E61568
:10033A0009F46624839402C0E881ECB97894219682
:10034A0008950E94AA041A930A9312B103B1E12FE5
:10035A00EC7189F4EB2DB394F0E0E459FD4F00837E
:10036A00E0E2EB1509F4BB24D394E0E2ED1519F4AD
:10037A00DD24689421F809911991E991EFBFF99167
:10038A00E9911895AA93EA93FA93EFB7EA93E09161
:10039A00AD02E030A9F0E150E093AD02E091AC0289
:1003AA00EF5FE093AC02E150F0E0E457FD4FE081EB
:1003BA00E3B9A091AC02A03219F4E0E0E093AC02F8
:1003CA00E991EFBFF991E991A9911895E0E8E093D5
:1003DA006100E0E0E0936100EBBBEABBE8BBE7BB8E
:1003EA00E5BBE4BBE2BBE1BBE7B9E6B9E3BFE2BF09
:1003FA00E1BFEFBD0E94AF04E0E0E6BDE7BDE3BDAB
:10040A00E2BDE0938B00E0938A00E0938900E093D9
:10041A008800E0938100E0938000E0938700E093F6
:10042A008600E0938500E0938400E5BFE6BFE9BF5C
:10043A00E0937D00EBB9E8EDEAB9E6E8E0BDE0E07B
:10044A00E0BDEBE0E9B9E0E0E2B9E8EDE1B9E6E800
:10045A00ECBFE0E0ECBFEBE0E0B9E0E8E8B9E0E0EF
:10046A00EDB97894E4E8F0E00E94BA04B9D07720B4
:10047A0011F40C94EB0227DFE43211F00C94EB0236
:10048A0022DFE83411F00C94E702E0E0E093B102D5
:10049A00E093B202A091B102B091B2021397A4F410
:1004AA00E091B102F091B202E255FD4FFF93EF9352
:1004BA000ADFAF91BF91EC93A1EBB2E0ED91FD9110
:1004CA003196FE93EE93E6CF0E94C104E0E0F2E09B
:1004DA000E94C60419F4E5E9F0E06DC00E94C10467
:1004EA00E4E0F2E00E94C60419F4E1EBF0E063C034
:1004FA000E94C104E8E0F2E00E94C60419F4EDEC9F
:10050A00F0E059C00E94C104ECE0F2E00E94C60487
:10051A0019F4E9EEF0E04FC00E94C104E0E1F2E014
:10052A000E94C60419F4E5E0F1E045C00E94C10446
:10053A00E4E1F2E00E94C60419F4E1E2F1E03BC012
:10054A000E94C104E8E1F2E00E94C60451F4EDE31E
:10055A00F1E00E94BA04F894E8E1E1BDE8E0E1BD07
:10056A00FFCF0E94C104ECE1F2E00E94C60419F434
:10057A00E9E5F1E020C00E94C104E0E2F2E00E9455
:10058A00C60419F4E5E7F1E016C00E94C104E4E2EA
:10059A00F2E00E94C60419F4E1E9F1E00CC00E94FD
:1005AA00C104E8E2F2E00E94C60419F4EDEAF1E0BF
:1005BA0002C0E5ECF1E0FA93EA9380E00E9483043A
:1005CA00229604C0E7EDF1E00E94BA04E1E0EA9362
:1005DA00E0E2F3E0FA93EA930FD049CF0000FECFAE
:1005EA009598969897988D9A8E9A8F9AE3EAEFBD86
:1005FA00E9E00E94AF040895AA81A13011F4969807
:10060A0007C0AA81A23019F4969A979802C0969ABE
:10061A00979AE881F981FBBDEABD0C944C03A99134
:10062A00B991EE27FF276D91662311F03196FBCF22
:10063A000895AA27BB27E991F9910590002011F0A6
:10064A001196FBCFFD010895662777278991E991D5
:10065A00F991A991B991882349F08A956D9171917F
:10066A00671721F46623B9F7EE270895671BE1F3AC
:10067A00E1E008F4E2500895EA81EA930E948C01CD
:10068A00A881B981ED91FD913196FE93EE9323965F
:10069A00089526970E94070510E0AC85BD85E0E025
:1006AA00F0E0ED93FC93EA89FB893196EA8BFB8BA8
:1006BA003197E4912E2FE03011F40C947B04E12F52
:1006CA00E03039F4253211F411E002C00E94CE0460
:1006DA000CC1E130A9F4253219F40E94CE0404C1F8
:1006EA0012E040E000E02D3211F401E0FEC02B32AE
:1006FA0011F44BE2FAC0203211F440E2F6C002C013
:10070A00E23039F450E013E0203311F40068EDC010
:10071A0004C0E33011F00C947A04203310F02A3329
:10072A0008F007C0AAE05A9F502DE22FE0535E0F4F
:10073A00DCC0E22FE33649F40E94D704E889F9893C
:10074A00A481AA930E94DD04CFC0E33741F40E943A
:10075A00D7040E94E5040E9414031E2F0AC0E03742
:10076A0061F40E94D7040E94E5040E941E031E2F12
:10077A00086002600F7730E035C0E43611F0E936E0
:10078A0011F4046002C0E53731F4E0E7F0E0EE83EB
:10079A00FF8315E00DC0E83511F4086004C0E8379E
:1007AA0011F00C947904EAE7F0E0EE83FF8314E099
:1007BA0002FF14C00E94D7040E94EF04AB85AA234B
:1007CA003AF4EA85FB850E94FB04EA87FB874DE23F
:1007DA00403011F01F5F01C00B7F04C00E94D70494
:1007EA000E94EF0400FD11C0151778F407FF08C036
:1007FA0002FF04C00B7F242F115001C020E301C067
:10080A0020E20E94CE045150EFCF312F01FF17C0D2
:10081A003030A1F003FF06C0EE81FF812591EE83FF
:10082A00FF8305C0AE81BF812D91AE83BF830E9435
:10083A00CE04503009F051503150EACF4BC020E37A
:10084A00EE81FF810E940305E887F987EE81FF8127
:10085A003296EE83FF83E885F985AA85BB85AE17B4
:10086A00BF0750F02F5FA885B985EA85FB85EA1B8B
:10087A00FB0BEA87FB87EFCF2A3328F003FF02C07E
:10088A00295F01C0295D04FD1AC0213320F4A8851F
:10089A00B985119709F409C0531710F000FF01C078
:1008AA0013C020E207FF0BC020E3006102FF07C06C
:1008BA000B7F4A930E94DD04503009F051500E9488
:1008CA00CE04503009F051503150A885B98512979D
:1008DA0008F0B5CF00FF08C0503031F05150E0E2C7
:1008EA00EA930E94DD04F8CF10E0DDCEAC85BD8529
:1008FA000E94FF040E940E0564960895FF92F82E46
:10090A0026971A930A93DE0114960E94F7048D0122
:10091A00E0E0EC83ED83EE83EF83DE0118960E941C
:10092A00F7040E94FF04FA93EA931A930A93E1E404
:10093A00F3E0FA93EA93FE013896FA93EA93A9DE72
:10094A00198108812896FF900895EA93FA93EFB7E0
:10095A00EA930895EEBDE0E0EDBDECBDE5BDE4BD72
:10096A00EBBDEABDE9BDE8BD0895FA93EA9380E0DC
:10097A000E94830422960895EEEAF2E0FA93EA933B
:10098A000895FA93EA93E3E0EA930E942903E03098
:10099A0008952A93ED85FE85FA93EA93E989FA89FF
:1009AA0009950895E889F9893497E88BF98B0895B0
:1009BA00ED85FE85FA93EA93E989FA8909950895FE
:1009CA00A889B98914960E94FF04EE83FF83FA93DB
:1009DA00EA930895A889B98914960E94FF04EA87C0
:1009EA00FB8708950024AF0DB01D0895F195E19598
:1009FA00F0400895ED91FC91119708950590F491B6
:100A0A00E02D08955A934A933A932A931A930A9394
:100A1A0008955D814C813B812A811981088108955D
:00000001FF
