:080000000C944F000C94000069
:100008000C9400000C9400000C9400000C94000068
:100018000C9400000C9400000C9400000C94000058
:100028000C9400000C9400000C9400000C94000048
:100038000C9400000C9400000C9400000C94000038
:100048000C9400000C9481000C94D7000C940000D0
:100058000C9400000C94AD000C940B010C9400005F
:100068000C9400000C9400001027E80364000A00B8
:1000780001000010000110000100000001002D4ED9
:10008800414E00494E460000010002008200010076
:10009800820284000000F894EE27ECBBF1E0FBBF7D
:1000A800EBBFE5BFE6BFF8E1F1BDE1BD8DE0A2E041
:1000B800BB27ED938A95E9F780E094E0A0E0B1E0F2
:1000C800ED930197E9F7E0E9F0E0859195910097C4
:1000D80061F0A591B59105901590BF01F0010590CB
:1000E8000D920197E1F7FB01F0CFEFEFEDBFE4E0F0
:1000F800EEBFC0E0D2E00C9450010E94AF011A9309
:100108000A931BB10CB1E12FEC7189F4E52D5394DE
:10011800F0E0E050FE4F0083E0E2E51509F45524D5
:100128007394E0E2E71519F47724689420F855C031
:100138001A937720F1F3E42D4394F0E0E050FE4F5A
:100148001081E0E2E41509F44424F8947A94789450
:100158005BC00E94AF01882061F08A94E92D9394D6
:10016800F0E0E05EFD4FE081ECB9E0E2E91509F46A
:10017800992435C0E0E2E815E9F3F894882011F4F1
:100188005D990DC0E62D6394F0E0E05EFD4FA88117
:10019800A083E0E2E61509F46624839402C0E881AE
:1001A800ECB9789477C00E94AF011A930A9312B100
:1001B80003B1E12FEC7189F4EB2DB394F0E0E05C2E
:1001C800FD4F0083E0E2EB1509F4BB24D394E0E291
:1001D800ED1519F4DD24689421F809911991E99134
:1001E800EFBFF991E99118951A93DD20F1F3EA2D03
:1001F800A394F0E0E05CFD4F1081E0E2EA1509F419
:10020800AA24F894DA947894E12F19910895AA937E
:10021800EA93FA93EFB7EA93E0918102E030A9F00C
:10022800E150E0938102E0918002EF5FE093800269
:10023800E150F0E0E05AFD4FE081E3B9A09180027F
:10024800A03219F4E0E0E0938002E991EFBFF99160
:10025800E991A9911895A0918102A032E1F3F8944F
:10026800E0918102E03011F4159911C0EC2DC3948E
:10027800F0E0E05AFD4FA881A083E0E2EC1509F414
:10028800CC24E0918102EF5FE093810202C0E88113
:10029800E3B9789421960895E0E8E0936100E0E0FE
:1002A800E0936100EBBBEABBE8BBE7BBE5BBE4BBA3
:1002B800E2BBE1BBE7B9E6B9E3BFE2BFE1BFEFBD2F
:1002C800EEBDEDBDECBDE5BDE4BDEBBDEABDE9BDF0
:1002D800E8BDE6BDE7BDE3BDE2BDE0938B00E0937A
:1002E8008A00E0938900E0938800E0938100E0931E
:1002F8008000E0938700E0938600E0938500E09318
:100308008400E5BFE6BFE9BFE0937D00EBB9E8ED07
:10031800EAB9E6E8E0BDE0E0E0BDE7E4E9B9E0E03D
:10032800E2B9E8EDE1B9E6E8ECBFE0E0ECBFE7E40C
:10033800E0B9E0E8E8B9E0E0EDB97894772019F0A1
:10034800F7DEEA9388DFDD2019F04EDFEA9312DF4B
:10035800F5CF0000FECFEA93FA93EFB7EA9308953A
:00000001FF
